:1000000002308A009B2A00000A108A100A11820717
:1000100028340C3401340634D4326D386539613AF1
:1000200075396500303084008313000803192528D2
:100030000230F800F701F70B1B28F80B1A2897304D
:10004000F700F70B2128800B1828080037182A28FA
:1000500008122B280816831608128312B7183228A4
:1000600088123328881683168812831237193A2883
:1000700008133B280817831608138312B719422860
:1000800088134328881783168813000083120815E5
:10009000831608114B284C28831208118316081167
:1000A00083120800B8018316081600308312081A5C
:1000B0000130B8048316881600308312881A013084
:1000C000F7000310F70D7708B804831608170030FF
:1000D0008312081B0130F700F70DF70DFC30F70510
:1000E0007708B8048316881700308312881B013004
:1000F000F700F70DF70DF70DF830F7057708B8049E
:100100003808F800080083160811081088108312B8
:100110000810831608100816881608178817831207
:10012000881483168810000083120815831608119E
:100130000000831252207808B700081183160811B6
:1001400000008312081583160811A6288312522076
:100150007808B600081183160811081288120813CF
:1001600088138312370EF700F030F705770836044E
:10017000F8007808B600B61FBF2883168B28B4088D
:10018000031DC4280810C528081483160810000091
:1001900083128810831688100000831208118316BA
:1001A00008118312350EB6000F30B6053608B700B9
:1001B000262035080F39B600B70026200800831620
:1001C0000812881208138813081108108810831267
:1001D0000810831608108312881083168810831263
:1001E0000811831608110F308312B000122001305D
:1001F000AB002B08033C031C05290330B700262065
:100200000530B0001220AB0AF9280230B7002620D2
:100210000530B0001220AB012B08033C031C192948
:100220002B080420AC00B4012C08B5008320AB0AD5
:100230000C298A110A12CD2A310B1F29222940309C
:10024000B2002329B20101303002B20732088038EF
:10025000B300B4013308B500832008002F08073A23
:1002600003193C290B3A03194129063A0319492974
:10027000023A03194F2954290130B000B1001C2162
:100280005929B4010130B50083200230B00012209A
:1002900059290130B0000230B1001C215929B401A4
:1002A0001030B500832059290130B4002F08B50063
:1002B000832008000B08AB008B13831603178C17E1
:1002C0000C140000000083120C087F390319A129C7
:1002D0000313AC0003170D080313AD0003170F0839
:1002E0000313AE002C08AF002E212D0803178D003C
:1002F00003132E0803178F0083168C170C140000AD
:10030000000083120C0D0E0D7F390319A129031370
:10031000AC0003170D080313AD0003170F080313F8
:10032000AE002C08AF002E212D0803178D000313FB
:100330002E0803178F008D0A03198F0A03135D29F6
:1003400003170313AB1B8B178A110A12DC2A8E309A
:10035000F7002E08F8002D08F900FA01F808031D2F
:10036000BB297908F800F9010830F702F808031DE5
:10037000BB29F701C3290310F81BC229F90DF80D99
:10038000F703BB29F8138A110A12F22A2D08031960
:10039000362AB50031080319362AB5070318D729BC
:1003A0007F30B502031C362A0319362ADB29813037
:1003B000B5070318362A3508F700F801F901FA01E4
:1003C0002E08B900B9172F08B8003008B700183048
:1003D000B500B601371C042A3408FA07031CF629B5
:1003E000F90A031DF629F80A0319B6173308F907A5
:1003F000031CFD29F80A0319B6173208AF00AF171E
:100400002F08F8070318B617B60DF80CF90CFA0CFC
:10041000B90CB80CB70C0310B50BE9290130F7077C
:100420000318362AF81B1B2AB90DFA0DF90DF80D21
:10043000F7030319362AB91F2C2AFA0A031D2C2A9E
:10044000F90A031D2C2AF80A031D2C2AF80CF90CB2
:10045000FA0CF70A0319362A2E08B6003208B60637
:10046000B61F342AF8173A2AF8133A2AF701F80186
:10047000F901FA018A110A12032B8E30F7002B08BA
:10048000F7022C08F9002D08F800F917F7080319EE
:10049000542A0310F908031D502AF8080319542A96
:1004A000F90CF80CF70B492AAC1F5B2AF809F9097B
:1004B000F80A0319F90A8A110A120C2BF801F9013A
:1004C000F701FA013008031D682A2F080319822A50
:1004D0001030B1000310AD0DAE0DF70DFA0D300860
:1004E0007A02031D752A2F087702031C7E2A2F0823
:1004F000F702031CFA033008FA020314F80DF90D91
:10050000B10B6A2A080080080319982AAC01040874
:10051000AB002C10831B2C140008AF002E212B08DD
:10052000840083132C188317840A0319850A832AED
:100530008A110A12492B03081F39830083161F14DE
:100540009F141F159F1107309C00831320308312C6
:10055000A0003030A100A2002E30A3003030A40053
:100560002030A5004330A6002030A700A801831644
:100570001F1383121F179F1783169F1783121F14B1
:1005800083161F109F141F159F150030F80083124B
:100590001F08C73978049F00DF280C30AF002E21D8
:1005A0000330B0000130B1001C210C3003178D0066
:1005B00000308F0003135A290430AB00FA30B0002A
:1005C0001220AB0BDE2A1F151F19E42A1E08FA00A1
:1005D00083161E088312AB001E08AC00AE002B0869
:1005E000AD00A7297A08B0007908AF007808AE00FE
:1005F0007708AD003530B4005E30B3007A30B20019
:100600007D30B100C6297A08AE007908AD007808BF
:10061000AC007708AB003D2A7908AA007808A90049
:10062000AA08031D172B2908633C03181A2B313025
:10063000A0001C2B2030A0002A08AE002908AD0025
:10064000B0010A30AF005E227908AC007808AB0038
:100650007908AE007808AD00B0010A30AF005E2224
:1006600030307707A1002A08AE002908AD00B0019C
:100670000A30AF005E2230307707A200DF30A500DD
:100680000530B0000230B1001C21203084008313FB
:06069000832ADC2A63004E
:02400E003A3F37
:00000001FF
;PIC16F877A
;CRC=E2C3  CREATED="09-Jun-22 15:47"
